{
  "contractName": "Lottery",
  "abi": [
    {
      "constant": true,
      "inputs": [],
      "name": "answerForTest",
      "outputs": [
        {
          "name": "",
          "type": "bytes32"
        }
      ],
      "payable": false,
      "stateMutability": "view",
      "type": "function",
      "signature": "0x84f7e4f0"
    },
    {
      "constant": true,
      "inputs": [],
      "name": "owner",
      "outputs": [
        {
          "name": "",
          "type": "address"
        }
      ],
      "payable": false,
      "stateMutability": "view",
      "type": "function",
      "signature": "0x8da5cb5b"
    },
    {
      "inputs": [],
      "payable": false,
      "stateMutability": "nonpayable",
      "type": "constructor",
      "signature": "constructor"
    },
    {
      "anonymous": false,
      "inputs": [
        {
          "indexed": false,
          "name": "index",
          "type": "uint256"
        },
        {
          "indexed": false,
          "name": "bettor",
          "type": "address"
        },
        {
          "indexed": false,
          "name": "amount",
          "type": "uint256"
        },
        {
          "indexed": false,
          "name": "challenges",
          "type": "bytes1"
        },
        {
          "indexed": false,
          "name": "answerBlockNumber",
          "type": "uint256"
        }
      ],
      "name": "BET",
      "type": "event",
      "signature": "0x100791de9f40bf2d56ffa6dc5597d2fd0b2703ea70bc7548cd74c04f5d215ab7"
    },
    {
      "anonymous": false,
      "inputs": [
        {
          "indexed": false,
          "name": "index",
          "type": "uint256"
        },
        {
          "indexed": false,
          "name": "bettor",
          "type": "address"
        },
        {
          "indexed": false,
          "name": "amount",
          "type": "uint256"
        },
        {
          "indexed": false,
          "name": "challenges",
          "type": "bytes1"
        },
        {
          "indexed": false,
          "name": "answer",
          "type": "bytes1"
        },
        {
          "indexed": false,
          "name": "answerBlockNumber",
          "type": "uint256"
        }
      ],
      "name": "WIN",
      "type": "event",
      "signature": "0x8219079e2d6c1192fb0ff7f78e6faaf5528ad6687e69749205d87bd4b156912b"
    },
    {
      "anonymous": false,
      "inputs": [
        {
          "indexed": false,
          "name": "index",
          "type": "uint256"
        },
        {
          "indexed": false,
          "name": "bettor",
          "type": "address"
        },
        {
          "indexed": false,
          "name": "amount",
          "type": "uint256"
        },
        {
          "indexed": false,
          "name": "challenges",
          "type": "bytes1"
        },
        {
          "indexed": false,
          "name": "answer",
          "type": "bytes1"
        },
        {
          "indexed": false,
          "name": "answerBlockNumber",
          "type": "uint256"
        }
      ],
      "name": "FAIL",
      "type": "event",
      "signature": "0x3b19d607433249d2ebc766ae82ca3848e9c064f1febb5147bc6e5b21d0adebc5"
    },
    {
      "anonymous": false,
      "inputs": [
        {
          "indexed": false,
          "name": "index",
          "type": "uint256"
        },
        {
          "indexed": false,
          "name": "bettor",
          "type": "address"
        },
        {
          "indexed": false,
          "name": "amount",
          "type": "uint256"
        },
        {
          "indexed": false,
          "name": "challenges",
          "type": "bytes1"
        },
        {
          "indexed": false,
          "name": "answer",
          "type": "bytes1"
        },
        {
          "indexed": false,
          "name": "answerBlockNumber",
          "type": "uint256"
        }
      ],
      "name": "DRAW",
      "type": "event",
      "signature": "0x72ec2e949e4fad9380f9d5db3e2ed0e71cf22c51d8d66424508bdc761a3f4b0e"
    },
    {
      "anonymous": false,
      "inputs": [
        {
          "indexed": false,
          "name": "index",
          "type": "uint256"
        },
        {
          "indexed": false,
          "name": "bettor",
          "type": "address"
        },
        {
          "indexed": false,
          "name": "amount",
          "type": "uint256"
        },
        {
          "indexed": false,
          "name": "challenges",
          "type": "bytes1"
        },
        {
          "indexed": false,
          "name": "answerBlockNumber",
          "type": "uint256"
        }
      ],
      "name": "REFUND",
      "type": "event",
      "signature": "0x59c0185881271a0f53d43e6ab9310091408f9e0ff9ae2512613de800f26b8de4"
    },
    {
      "constant": true,
      "inputs": [],
      "name": "getPot",
      "outputs": [
        {
          "name": "pot",
          "type": "uint256"
        }
      ],
      "payable": false,
      "stateMutability": "view",
      "type": "function",
      "signature": "0x403c9fa8"
    },
    {
      "constant": false,
      "inputs": [
        {
          "name": "challenges",
          "type": "bytes1"
        }
      ],
      "name": "betAndDistribute",
      "outputs": [
        {
          "name": "result",
          "type": "bool"
        }
      ],
      "payable": true,
      "stateMutability": "payable",
      "type": "function",
      "signature": "0xe16ea857"
    },
    {
      "constant": false,
      "inputs": [
        {
          "name": "challenges",
          "type": "bytes1"
        }
      ],
      "name": "bet",
      "outputs": [
        {
          "name": "result",
          "type": "bool"
        }
      ],
      "payable": true,
      "stateMutability": "payable",
      "type": "function",
      "signature": "0xf4b46f5b"
    },
    {
      "constant": false,
      "inputs": [],
      "name": "distribute",
      "outputs": [],
      "payable": false,
      "stateMutability": "nonpayable",
      "type": "function",
      "signature": "0xe4fc6b6d"
    },
    {
      "constant": false,
      "inputs": [
        {
          "name": "answer",
          "type": "bytes32"
        }
      ],
      "name": "setAnswerForTest",
      "outputs": [
        {
          "name": "result",
          "type": "bool"
        }
      ],
      "payable": false,
      "stateMutability": "nonpayable",
      "type": "function",
      "signature": "0x7009fa36"
    },
    {
      "constant": true,
      "inputs": [
        {
          "name": "challenges",
          "type": "bytes1"
        },
        {
          "name": "answer",
          "type": "bytes32"
        }
      ],
      "name": "isMatch",
      "outputs": [
        {
          "name": "",
          "type": "uint8"
        }
      ],
      "payable": false,
      "stateMutability": "pure",
      "type": "function",
      "signature": "0x99a167d7"
    },
    {
      "constant": true,
      "inputs": [
        {
          "name": "index",
          "type": "uint256"
        }
      ],
      "name": "getBetInfo",
      "outputs": [
        {
          "name": "answerBlockNumber",
          "type": "uint256"
        },
        {
          "name": "bettor",
          "type": "address"
        },
        {
          "name": "challenges",
          "type": "bytes1"
        }
      ],
      "payable": false,
      "stateMutability": "view",
      "type": "function",
      "signature": "0x79141f80"
    },
    {
      "constant": false,
      "inputs": [
        {
          "name": "challenges",
          "type": "bytes1"
        }
      ],
      "name": "pushBet",
      "outputs": [
        {
          "name": "",
          "type": "bool"
        }
      ],
      "payable": false,
      "stateMutability": "nonpayable",
      "type": "function",
      "signature": "0x03282096"
    },
    {
      "constant": false,
      "inputs": [
        {
          "name": "index",
          "type": "uint256"
        }
      ],
      "name": "popBet",
      "outputs": [
        {
          "name": "",
          "type": "bool"
        }
      ],
      "payable": false,
      "stateMutability": "nonpayable",
      "type": "function",
      "signature": "0xd04c9a8c"
    }
  ],
  "bytecode": "0x60806040526000600560006101000a81548160ff02191690831515021790555034801561002b57600080fd5b5033600360006101000a81548173ffffffffffffffffffffffffffffffffffffffff021916908373ffffffffffffffffffffffffffffffffffffffff1602179055506117378061007c6000396000f3fe6080604052600436106100af576000357c0100000000000000000000000000000000000000000000000000000000900463ffffffff16806303282096146100b4578063403c9fa8146101295780637009fa361461015457806379141f80146101a757806384f7e4f0146102745780638da5cb5b1461029f57806399a167d7146102f6578063d04c9a8c1461037f578063e16ea857146103d2578063e4fc6b6d1461043a578063f4b46f5b14610451575b600080fd5b3480156100c057600080fd5b5061010f600480360360208110156100d757600080fd5b8101908080357effffffffffffffffffffffffffffffffffffffffffffffffffffffffffffff191690602001909291905050506104b9565b604051808215151515815260200191505060405180910390f35b34801561013557600080fd5b5061013e61061d565b6040518082815260200191505060405180910390f35b34801561016057600080fd5b5061018d6004803603602081101561017757600080fd5b8101908080359060200190929190505050610627565b604051808215151515815260200191505060405180910390f35b3480156101b357600080fd5b506101e0600480360360208110156101ca57600080fd5b8101908080359060200190929190505050610724565b604051808481526020018373ffffffffffffffffffffffffffffffffffffffff1673ffffffffffffffffffffffffffffffffffffffff168152602001827effffffffffffffffffffffffffffffffffffffffffffffffffffffffffffff19167effffffffffffffffffffffffffffffffffffffffffffffffffffffffffffff19168152602001935050505060405180910390f35b34801561028057600080fd5b50610289610849565b6040518082815260200191505060405180910390f35b3480156102ab57600080fd5b506102b461084f565b604051808273ffffffffffffffffffffffffffffffffffffffff1673ffffffffffffffffffffffffffffffffffffffff16815260200191505060405180910390f35b34801561030257600080fd5b5061035b6004803603604081101561031957600080fd5b8101908080357effffffffffffffffffffffffffffffffffffffffffffffffffffffffffffff1916906020019092919080359060200190929190505050610875565b6040518082600281111561036b57fe5b60ff16815260200191505060405180910390f35b34801561038b57600080fd5b506103b8600480360360208110156103a257600080fd5b8101908080359060200190929190505050610bbe565b604051808215151515815260200191505060405180910390f35b610420600480360360208110156103e857600080fd5b8101908080357effffffffffffffffffffffffffffffffffffffffffffffffffffffffffffff19169060200190929190505050610c22565b604051808215151515815260200191505060405180910390f35b34801561044657600080fd5b5061044f610c3f565b005b61049f6004803603602081101561046757600080fd5b8101908080357effffffffffffffffffffffffffffffffffffffffffffffffffffffffffffff19169060200190929190505050611397565b604051808215151515815260200191505060405180910390f35b60006104c36116b1565b33816020019073ffffffffffffffffffffffffffffffffffffffff16908173ffffffffffffffffffffffffffffffffffffffff1681525050600343018160000181815250508281604001907effffffffffffffffffffffffffffffffffffffffffffffffffffffffffffff191690817effffffffffffffffffffffffffffffffffffffffffffffffffffffffffffff1916815250508060026000805481526020019081526020016000206000820151816000015560208201518160010160006101000a81548173ffffffffffffffffffffffffffffffffffffffff021916908373ffffffffffffffffffffffffffffffffffffffff16021790555060408201518160010160146101000a81548160ff02191690837f01000000000000000000000000000000000000000000000000000000000000009004021790555090505060008081548092919060010191905055506001915050919050565b6000600454905090565b6000600360009054906101000a900473ffffffffffffffffffffffffffffffffffffffff1673ffffffffffffffffffffffffffffffffffffffff163373ffffffffffffffffffffffffffffffffffffffff16141515610714576040517f08c379a000000000000000000000000000000000000000000000000000000000815260040180806020018281038252602b8152602001807f6f6e6c79206f6e7765722063616e207365742074686520616e7377657220666f81526020017f722074657374206d6f646500000000000000000000000000000000000000000081525060400191505060405180910390fd5b8160068190555060019050919050565b60008060006107316116b1565b6002600086815260200190815260200160002060606040519081016040529081600082015481526020016001820160009054906101000a900473ffffffffffffffffffffffffffffffffffffffff1673ffffffffffffffffffffffffffffffffffffffff1673ffffffffffffffffffffffffffffffffffffffff1681526020016001820160149054906101000a90047f0100000000000000000000000000000000000000000000000000000000000000027effffffffffffffffffffffffffffffffffffffffffffffffffffffffffffff19167effffffffffffffffffffffffffffffffffffffffffffffffffffffffffffff1916815250509050806000015193508060200151925080604001519150509193909250565b60065481565b600360009054906101000a900473ffffffffffffffffffffffffffffffffffffffff1681565b6000808390506000849050600084600060208110151561089157fe5b1a7f010000000000000000000000000000000000000000000000000000000000000002905060008560006020811015156108c757fe5b1a7f01000000000000000000000000000000000000000000000000000000000000000290506004847effffffffffffffffffffffffffffffffffffffffffffffffffffffffffffff1916908060020a820491505093506004847effffffffffffffffffffffffffffffffffffffffffffffffffffffffffffff19169060020a0293506004827effffffffffffffffffffffffffffffffffffffffffffffffffffffffffffff1916908060020a820491505091506004827effffffffffffffffffffffffffffffffffffffffffffffffffffffffffffff19169060020a0291506004837effffffffffffffffffffffffffffffffffffffffffffffffffffffffffffff19169060020a0292506004837effffffffffffffffffffffffffffffffffffffffffffffffffffffffffffff1916908060020a820491505092506004817effffffffffffffffffffffffffffffffffffffffffffffffffffffffffffff19169060020a0290506004817effffffffffffffffffffffffffffffffffffffffffffffffffffffffffffff1916908060020a82049150509050837effffffffffffffffffffffffffffffffffffffffffffffffffffffffffffff1916827effffffffffffffffffffffffffffffffffffffffffffffffffffffffffffff1916148015610af65750827effffffffffffffffffffffffffffffffffffffffffffffffffffffffffffff1916817effffffffffffffffffffffffffffffffffffffffffffffffffffffffffffff1916145b15610b08576001945050505050610bb8565b837effffffffffffffffffffffffffffffffffffffffffffffffffffffffffffff1916827effffffffffffffffffffffffffffffffffffffffffffffffffffffffffffff19161480610b9d5750827effffffffffffffffffffffffffffffffffffffffffffffffffffffffffffff1916817effffffffffffffffffffffffffffffffffffffffffffffffffffffffffffff1916145b15610baf576002945050505050610bb8565b60009450505050505b92915050565b6000600260008381526020019081526020016000206000808201600090556001820160006101000a81549073ffffffffffffffffffffffffffffffffffffffff02191690556001820160146101000a81549060ff0219169055505060019050919050565b6000610c2d82611397565b50610c36610c3f565b60019050919050565b600080610c4a6116b1565b60008060015494505b600054851015611389576002600086815260200190815260200160002060606040519081016040529081600082015481526020016001820160009054906101000a900473ffffffffffffffffffffffffffffffffffffffff1673ffffffffffffffffffffffffffffffffffffffff1673ffffffffffffffffffffffffffffffffffffffff1681526020016001820160149054906101000a90047f0100000000000000000000000000000000000000000000000000000000000000027effffffffffffffffffffffffffffffffffffffffffffffffffffffffffffff19167effffffffffffffffffffffffffffffffffffffffffffffffffffffffffffff1916815250509250610d65836000015161156c565b915060006002811115610d7457fe5b826002811115610d8057fe5b1415611245576000610d9584600001516115c0565b9050610da5846040015182610875565b915060016002811115610db457fe5b826002811115610dc057fe5b1415610f3a57610ddf84602001516611c37937e08000600454016115e8565b945060006004819055507f8219079e2d6c1192fb0ff7f78e6faaf5528ad6687e69749205d87bd4b156912b868560200151878760400151856000602081101515610e2557fe5b1a7f0100000000000000000000000000000000000000000000000000000000000000028960000151604051808781526020018673ffffffffffffffffffffffffffffffffffffffff1673ffffffffffffffffffffffffffffffffffffffff168152602001858152602001847effffffffffffffffffffffffffffffffffffffffffffffffffffffffffffff19167effffffffffffffffffffffffffffffffffffffffffffffffffffffffffffff19168152602001837effffffffffffffffffffffffffffffffffffffffffffffffffffffffffffff19167effffffffffffffffffffffffffffffffffffffffffffffffffffffffffffff19168152602001828152602001965050505050505060405180910390a15b60006002811115610f4757fe5b826002811115610f5357fe5b14156110bd576611c37937e08000600454016004819055507f3b19d607433249d2ebc766ae82ca3848e9c064f1febb5147bc6e5b21d0adebc586856020015160008760400151856000602081101515610fa857fe5b1a7f0100000000000000000000000000000000000000000000000000000000000000028960000151604051808781526020018673ffffffffffffffffffffffffffffffffffffffff1673ffffffffffffffffffffffffffffffffffffffff168152602001858152602001847effffffffffffffffffffffffffffffffffffffffffffffffffffffffffffff19167effffffffffffffffffffffffffffffffffffffffffffffffffffffffffffff19168152602001837effffffffffffffffffffffffffffffffffffffffffffffffffffffffffffff19167effffffffffffffffffffffffffffffffffffffffffffffffffffffffffffff19168152602001828152602001965050505050505060405180910390a15b6002808111156110c957fe5b8260028111156110d557fe5b1415611243576110f084602001516611c37937e080006115e8565b94507f72ec2e949e4fad9380f9d5db3e2ed0e71cf22c51d8d66424508bdc761a3f4b0e86856020015187876040015185600060208110151561112e57fe5b1a7f0100000000000000000000000000000000000000000000000000000000000000028960000151604051808781526020018673ffffffffffffffffffffffffffffffffffffffff1673ffffffffffffffffffffffffffffffffffffffff168152602001858152602001847effffffffffffffffffffffffffffffffffffffffffffffffffffffffffffff19167effffffffffffffffffffffffffffffffffffffffffffffffffffffffffffff19168152602001837effffffffffffffffffffffffffffffffffffffffffffffffffffffffffffff19167effffffffffffffffffffffffffffffffffffffffffffffffffffffffffffff19168152602001828152602001965050505050505060405180910390a15b505b6001600281111561125257fe5b82600281111561125e57fe5b141561126957611389565b60028081111561127557fe5b82600281111561128157fe5b14156113725761129c83602001516611c37937e080006115e8565b93507f59c0185881271a0f53d43e6ab9310091408f9e0ff9ae2512613de800f26b8de48584602001518686604001518760000151604051808681526020018573ffffffffffffffffffffffffffffffffffffffff1673ffffffffffffffffffffffffffffffffffffffff168152602001848152602001837effffffffffffffffffffffffffffffffffffffffffffffffffffffffffffff19167effffffffffffffffffffffffffffffffffffffffffffffffffffffffffffff191681526020018281526020019550505050505060405180910390a15b61137b85610bbe565b508480600101955050610c53565b846001819055505050505050565b60006611c37937e0800034141515611417576040517f08c379a000000000000000000000000000000000000000000000000000000000815260040180806020018281038252600e8152602001807f4e6f7420656e6f7567682045544800000000000000000000000000000000000081525060200191505060405180910390fd5b611420826104b9565b1515611494576040517f08c379a000000000000000000000000000000000000000000000000000000000815260040180806020018281038252601a8152602001807f4661696c20746f206164642061206e65772042657420496e666f00000000000081525060200191505060405180910390fd5b7f100791de9f40bf2d56ffa6dc5597d2fd0b2703ea70bc7548cd74c04f5d215ab760016000540333348560034301604051808681526020018573ffffffffffffffffffffffffffffffffffffffff1673ffffffffffffffffffffffffffffffffffffffff168152602001848152602001837effffffffffffffffffffffffffffffffffffffffffffffffffffffffffffff19167effffffffffffffffffffffffffffffffffffffffffffffffffffffffffffff191681526020018281526020019550505050505060405180910390a160019050919050565b600081431180156115805750816101000143105b1561158e57600090506115bb565b81431115156115a057600190506115bb565b6101008201431015156115b657600290506115bb565b600290505b919050565b6000600560009054906101000a900460ff166115de576006546115e1565b81405b9050919050565b60008060009050600081840390508473ffffffffffffffffffffffffffffffffffffffff166108fc829081150290604051600060405180830381858888f1935050505015801561163c573d6000803e3d6000fd5b50600360009054906101000a900473ffffffffffffffffffffffffffffffffffffffff1673ffffffffffffffffffffffffffffffffffffffff166108fc839081150290604051600060405180830381858888f193505050501580156116a5573d6000803e3d6000fd5b50809250505092915050565b60606040519081016040528060008152602001600073ffffffffffffffffffffffffffffffffffffffff16815260200160007effffffffffffffffffffffffffffffffffffffffffffffffffffffffffffff19168152509056fea165627a7a723058202c77828a0aeedca80ed72db21d9895eb93462ed152d757a679b214159237f4c20029",
  "source": "// SPDX-License-Identifier: MIT\npragma solidity >=0.4.21 <0.9.0;\n\ncontract Lottery{\n\n    struct BetInfo {\n        uint256 answerBlockNumber;  // 맞추려는 정답 블록의 해시번호\n        address payable bettor; // 베팅자의 지갑주소, 거래 관련이라 payable\n        bytes1 challenges; // 베터가 제시한 문자 ex) 0xab\n    }\n\n    uint256 private _tail; // _bets로 값이 들어오면 _tail이 증가\n    uint256 private _head; // _head 값에서부터 값을 검증\n    mapping (uint256 => BetInfo) private _bets; // queue\n    \n    address payable public owner;\n\n    uint256 constant internal BLOCK_LIMIT = 256;\n    uint256 constant internal BET_BLOCK_INTERVAL = 3; // +3번 블락에 배팅(1 -> 4번)\n    uint256 constant internal BET_AMOUNT = 5 * 10 ** 15; // 고정된 베팅값(0.005eth)\n\n    uint256 private _pot; // 팟머니 저장할 곳\n    bool private mode = false;  // false: test answer for testing, true: real block hash\n    bytes32 public answerForTest;\n\n    enum BlockStatus {Checkable, NotRevealed, BlockLimitPassed}\n    enum BettingResult {Fail, Win, Draw}\n\n    event BET(uint256 index, address bettor, uint256 amount, bytes1 challenges, uint256 answerBlockNumber);\n    event WIN(uint256 index, address bettor, uint256 amount, bytes1 challenges, bytes1 answer, uint256 answerBlockNumber);\n    event FAIL(uint256 index, address bettor, uint256 amount, bytes1 challenges, bytes1 answer, uint256 answerBlockNumber);\n    event DRAW(uint256 index, address bettor, uint256 amount, bytes1 challenges, bytes1 answer, uint256 answerBlockNumber);\n    event REFUND(uint256 index, address bettor, uint256 amount, bytes1 challenges, uint256 answerBlockNumber);\n\n    constructor() public {\n        owner = msg.sender;\n    }\n\n    // 팟에 대한 getter\n    // 스마트 컨트랙트의 변수 조회를 위한 view 제어자 \n    function getPot() public view returns (uint256 pot){\n        return _pot;\n    }\n    \n    /**\n    * @dev 베팅과 정답체크를 한다. 유저는 0.005ETH를 보내야 하고, 베팅용 1 byte 글자를 보낸다\n    * 큐에 저장된 베팅정보는 이후 distributre 함수에서 해결된다. \n    * @param challenges 유저가 베팅하는 글자\n    * @return 함수가 잘 수행되었는지 확인하는 bool 값\n    */\n    function betAndDistribute(bytes1 challenges) public payable returns (bool result){\n        bet(challenges);\n        distribute();\n        return true;\n    }\n    \n    /**\n    * @dev 베팅을 한다. 유저는 0.005ETH를 보내야 하고, 베팅용 1 byte 글자를 보낸다\n    * 큐에 저장된 베팅정보는 이후 distributre 함수에서 해결된다. \n    * @param challenges 유저가 베팅하는 글자\n    * @return 함수가 잘 수행되었는지 확인하는 bool 값\n    */\n    function bet(bytes1 challenges) public payable returns(bool result){\n        // 돈이 제대로 들어왔는지 체크\n        require(msg.value == BET_AMOUNT, \"Not enough ETH\");\n        // queue에 bet 정보 push\n        require(pushBet(challenges),\"Fail to add a new Bet Info\");\n        // event 로그 찍기\n        emit BET(_tail - 1, msg.sender, msg.value, challenges, block.number + BET_BLOCK_INTERVAL);\n        return true;\n    }\n\n    /**\n    * @dev 베팅 결과값을 확인하고 팟머니를 분배한다.\n    * 정답실패: 팟머니 축적, 정답 맞추미 팟머니 획득, 한글자 맞춤/정답 확인 불가 : 배팅 금액만 획득 \n    */\n    // distribute\n    function distribute() public {\n        // head 3 4 5 6 7 ... tail\n        uint256 cur;\n        uint256 transferAmount; // 전송한 금액\n\n        BetInfo memory b;\n        BlockStatus currentBlockStatus;\n        BettingResult currentBettingResult;\n\n        for(cur = _head; cur < _tail; cur++){\n            b = _bets[cur]; // 베팅 정보 불러오기\n            currentBlockStatus = getBlockStatus(b.answerBlockNumber);\n            \n            // 블럭 해시 확인 불가 1. 블럭이 아직 마이닝 안됐을때, 2. 블럭 제한을 넘어갔을때\n            // checkable : 블럭 번호가 정답 블럭 번호보다 크고, 블럭 제한 번호+ 정답 블럭 번호보다 작을 때\n            if(currentBlockStatus == BlockStatus.Checkable){\n                bytes32 answerBlockHash = getAnswerBlockHash(b.answerBlockNumber);\n                currentBettingResult = isMatch(b.challenges, answerBlockHash); \n                // if win, bettor gets pot\n                if(currentBettingResult == BettingResult.Win){\n                    // transfer pot\n                    transferAmount = trnasferAfterPayingFee(b.bettor, _pot + BET_AMOUNT);\n                    \n                    // pot = 0\n                    _pot = 0;\n                    \n                    // emit WIN\n                    emit WIN(cur, b.bettor, transferAmount, b.challenges, answerBlockHash[0], b.answerBlockNumber);\n                }\n                // if fail, bettor's money goes to pot\n                if(currentBettingResult == BettingResult.Fail){\n                    // pot = pot + BET_AMOUNT\n                    _pot = _pot + BET_AMOUNT;\n\n                    // emit FAIL\n                    emit FAIL(cur, b.bettor, 0, b.challenges, answerBlockHash[0], b.answerBlockNumber);\n                }\n                // if draw, refund bettor's money\n                if(currentBettingResult == BettingResult.Draw){\n                    // transfer only BET_AMOUNT\n                    transferAmount = trnasferAfterPayingFee(b.bettor, BET_AMOUNT);\n\n                    // emit DRAW\n                    emit DRAW(cur, b.bettor, transferAmount, b.challenges, answerBlockHash[0], b.answerBlockNumber);\n                }\n                \n            } \n            // not revealed(1번)\n            if(currentBlockStatus == BlockStatus.NotRevealed){\n                break;\n            }\n            // block limit passed(2번)\n            if(currentBlockStatus == BlockStatus.BlockLimitPassed){\n                // refund\n                transferAmount = trnasferAfterPayingFee(b.bettor, BET_AMOUNT);\n                // emit refund\n                emit REFUND(cur, b.bettor, transferAmount, b.challenges, b.answerBlockNumber);\n            }\n            popBet(cur);\n        }\n        _head = cur;\n    }\n    \n    function trnasferAfterPayingFee(address payable addr, uint256 amount) internal returns (uint256){\n        uint256 fee = 0;\n        uint256 amountWithoutFee = amount - fee;\n\n        // transfer to addr\n        addr.transfer(amountWithoutFee);\n        // transfer to owner\n        owner.transfer(fee);\n\n        // 이더 전송 방법 : call, send, transfer\n        // transfer를 가장 많이 사용하며 가장 안전한 방법. \n        \n        return amountWithoutFee;\n    }\n\n    function getBlockStatus(uint256 answerBlockNumber) internal view returns (BlockStatus){\n        if(block.number > answerBlockNumber && block.number < BLOCK_LIMIT + answerBlockNumber){\n            return BlockStatus.Checkable;\n        }\n        if(block.number <= answerBlockNumber){\n            return BlockStatus.NotRevealed;\n        }\n        if(block.number >= answerBlockNumber + BLOCK_LIMIT){\n            return BlockStatus.BlockLimitPassed;\n        }\n        return BlockStatus.BlockLimitPassed;\n         \n    }\n\n    function setAnswerForTest(bytes32 answer) public returns (bool result){\n        require(msg.sender == owner, \"only onwer can set the answer for test mode\");\n        answerForTest = answer;\n        return true;\n    }\n\n    function getAnswerBlockHash(uint256 answerBlockNumber) internal view returns(bytes32 answer){\n        return mode ? blockhash(answerBlockNumber) : answerForTest;\n    }\n\n    /**\n    * @dev 베팅글자와 정답을 확인한다.\n    * @param challenges 베팅 글자\n    * @param answer 블럭해시\n    * @return 정답결과\n    */\n    function isMatch(bytes1 challenges, bytes32 answer) public pure returns(BettingResult){\n        bytes1 c1 = challenges;\n        bytes1 c2 = challenges;\n\n        bytes1 a1 = answer[0];\n        bytes1 a2 = answer[0];\n\n        // get first number\n        c1 = c1>>4; // 0xab -> 0x0a\n        c1 = c1<<4; // 0x0a -> 0xa0\n\n        a1 = a1>>4; \n        a1 = a1<<4; \n\n        // get second number\n        c2 = c2<<4; // 0xab -> 0xb0\n        c2 = c2>>4; // 0x0a -> 0x0b\n\n        a2 = a2<<4; \n        a2 = a2>>4; \n\n        if(a1 == c1 && a2 == c2){\n            return BettingResult.Win;\n        }\n        if(a1 == c1 || a2 == c2){\n            return BettingResult.Draw;\n        }\n        \n        return BettingResult.Fail;\n        \n    }\n\n    function getBetInfo(uint256 index) public view returns (uint256 answerBlockNumber, address bettor, bytes1 challenges){\n        BetInfo memory b = _bets[index];\n        answerBlockNumber = b.answerBlockNumber;\n        bettor = b.bettor;\n        challenges = b.challenges;\n    }\n\n    function pushBet(bytes1 challenges) public returns (bool){\n        BetInfo memory b;\n        b.bettor = msg.sender;\n        b.answerBlockNumber = block.number + BET_BLOCK_INTERVAL; // block.number : 현재 트랙제션의 블락 넘버를 가져옴\n        b.challenges = challenges;\n\n        _bets[_tail] = b;\n        _tail++;\n\n        return true;\n    }\n\n    function popBet(uint256 index) public returns (bool){\n        // map에 있는 값을 초기화하게 되면 가스를 돌려받게 된다. -> 필요하지 않은 값은 delete 해 주는 게 좋다.\n        delete _bets[index];\n        return true;  \n    }\n}",
  "sourcePath": "/Users/jaewonlee/Desktop/Project/lottery-dapp/lottery-smart-contract/contracts/Lottery.sol",
  "compiler": {
    "name": "solc",
    "version": "0.5.0+commit.1d4f565a.Emscripten.clang"
  },
  "schemaVersion": "3.0.1",
  "updatedAt": "2022-03-24T06:05:39.701Z",
  "devdoc": {
    "methods": {
      "bet(bytes1)": {
        "details": "베팅을 한다. 유저는 0.005ETH를 보내야 하고, 베팅용 1 byte 글자를 보낸다 큐에 저장된 베팅정보는 이후 distributre 함수에서 해결된다. ",
        "params": {
          "challenges": "유저가 베팅하는 글자"
        },
        "return": "함수가 잘 수행되었는지 확인하는 bool 값"
      },
      "betAndDistribute(bytes1)": {
        "details": "베팅과 정답체크를 한다. 유저는 0.005ETH를 보내야 하고, 베팅용 1 byte 글자를 보낸다 큐에 저장된 베팅정보는 이후 distributre 함수에서 해결된다. ",
        "params": {
          "challenges": "유저가 베팅하는 글자"
        },
        "return": "함수가 잘 수행되었는지 확인하는 bool 값"
      },
      "distribute()": {
        "details": "베팅 결과값을 확인하고 팟머니를 분배한다. 정답실패: 팟머니 축적, 정답 맞추미 팟머니 획득, 한글자 맞춤/정답 확인 불가 : 배팅 금액만 획득 "
      },
      "isMatch(bytes1,bytes32)": {
        "details": "베팅글자와 정답을 확인한다.",
        "params": {
          "answer": "블럭해시",
          "challenges": "베팅 글자"
        },
        "return": "정답결과"
      }
    }
  },
  "userdoc": {
    "methods": {}
  }
}